S01300006C6F636B5F73797374656D2E7372656364
S11300000C942A000C9447000C9447000C9447006D
S11300100C9447000C9447000C9447000C94470040
S11300200C9447000C9447000C9447000C94470030
S11300300C9447000C9447000C9447000C94470020
S11300400C9447000C9447000C9447000C94470010
S11300500C94470011241FBECFE5D8E0DEBFCDBF0E
S113006010E0A0E6B0E0ECEDF5E002C005900D92E2
S1130070A43DB107D9F720E0A4EDB0E001C01D9282
S1130080AB3DB207E1F70E94D5020C94EC020C944C
S113009000008FE081BB12BA089592B321E030E0F2
S11300A0F90102C0EE0FFF1F8A95E2F7E0959E2347
S11300B092BB92B3F90102C0EE0FFF1F6A95E2F7FB
S11300C08E2F8095892382BB82B302C0220F331FF7
S11300D04A95E2F72095282322BB0895909A43E09D
S11300E062E081E00E944D00849B04C08499FECFAD
S11300F087E30895859B04C08599FECF88E308951E
S1130100869B04C08699FECF89E30895879B04C02B
S11301108799FECF8FE208958FE19EE40197F1F76E
S113012000C00000919A43E062E080E00E944D002C
S1130130849B04C08499FECF84E30895859B04C006
S11301408599FECF85E30895869B04C08699FECFEA
S113015086E30895879B04C08799FECF8AE20895B9
S11301608FE19EE40197F1F700C00000929A43E00A
S113017060E081E00E944D00849B04C08499FECF1E
S113018081E30895859B04C08599FECF82E3089599
S1130190869B04C08699FECF83E30895879B04C0A1
S11301A08799FECF8DE208958FE19EE40197F1F7E0
S11301B000C00000939A40E062E081E00E944D009C
S11301C0849B04C08499FECF83E60895859B04C074
S11301D08599FECF80E30895869B04C08699FECF5F
S11301E08DE30895879B04C08799FECF8BE2089521
S11301F08FE19EE40197F1F700C000008EE60895B8
S11302000E946E008E36E1F30895A89A85E08A95DF
S1130210F1F70000A89885E08A95F1F700000895A9
S1130220A99818BA88BB0E9405010895A99A18BA1A
S113023088BB0E9405010895A19AA09A8FEF87BBFD
S1130240A998A89818BA8FE39CE90197F1F700C020
S1130250000018BA88E30E9410010E9405018FEA89
S113026096E30197F1F700C0000018BA88E30E94F2
S113027010010E9405019FEF2DEE82E09150204075
S11302808040E1F700C0000018BA88E30E94100122
S11302900E94050181E00E9410018FE19EE4019714
S11302A0F1F700C0000082E00E9410018FE19EE49B
S11302B00197F1F700C0000086E00E9410018FE171
S11302C09EE40197F1F700C000008DE00E94100148
S11302D08FE19EE40197F1F700C0000080E10E94E5
S11302E010018FE19EE40197F1F700C0000086E55C
S11302F00E9410018FE19EE40197F1F700C0000015
S113030080E80E9410018FE19EE40197F1F700C09C
S113031000000895CF93C42F90E4899F600D1124A9
S1130320862F815C0E9410018FEC97E00197F1F712
S113033000C000008C2F0E9416018FEC97E00197FB
S1130340F1F700C00000CF910895CF93DF93EA0145
S113035090E4899F600D1124862F815C0E94100116
S11303608FEC97E00197F1F700C0000088818823A3
S113037061F021960E9416018FE19EE40197F1F746
S113038000C0000089918111F5CFDF91CF910895CC
S11303900F931F93CF9381E00E9410018FE19EE49D
S11303A00197F1F700C000008CE00E9410018FE17A
S11303B09EE40197F1F700C0000046E650E064E0D7
S11303C081E00E94A5018FE19EE40197F1F700C04E
S11303D000004EE650E062E082E00E94A5010E9427
S11303E000019FEF20E782E0915020408040E1F738
S11303F000C0000081E00E9410018FE19EE401979B
S1130400F1F700C000004CE750E061E081E00E9499
S1130410A50103E010E01AC04EE26C2F81E00E94B7
S11304208A019FEF21EE84E0915020408040E1F763
S113043000C00000CF5FCE3079F746E850E06AE0B4
S113044081E00E94A5010150110911F0CAE0E4CF36
S1130450CF911F910F9108951F93CF93DF9381E064
S11304600E9410018FE19EE40197F1F700C00000A3
S11304704CE850E061E081E00E94A501C0E0D0E0DA
S11304800E9400018336E1F08D3309F1FE01EB5245
S1130490FF4F8083482F1C2F1E5F612F82E00E9434
S11304A08A019FEF20E782E0915020408040E1F7ED
S11304B000C000004AE2612F82E00E948A0107C066
S11304C06C2F6F5F40E282E00E948A01229721969E
S11304D0C630D105ACF2DF91CF911F910895E0E6CB
S11304E0F0E0A5EDB0E026E630E003C0E217F30744
S11304F031F091918D919817C9F380E0089581E0CE
S1130500089581E00E9410018FE19EE40197F1F7C4
S113051000C000004FE950E062E081E00E94A501C4
S113052049EA50E062E082E00E94A501FFCF81E049
S11305300E9410018FE19EE40197F1F700C00000D2
S113054044EB50E062E081E00E94A5014FEB50E0F3
S113055062E082E00E94A5018091D4008F5F8093C5
S1130560D4008330F9F481E00E9410018FE19EE40D
S11305700197F1F700C0000049EC50E062E081E02F
S11305800E94A5014FEB50E062E082E00E94A501C9
S11305909FEF23ED80E3915020408040E1F700C0BD
S11305A00000FFCF0E942C0208950E9449000E947F
S11305B01C010E94C8010E942C020E9400018D337C
S11305C0E1F70E946F02813011F40E9481028111CF
S10F05D0F4CF0E949702F1CFF894FFCF03
S11305DC31323334353677656C636F6D6500707208
S11305EC65737320616E79206B6579006C6F61643F
S11305FC696E67202E00202020202000656E746513
S113060C72207468652070617373203A202D006821
S113061C656C6C6F2020746F00746865207379733B
S113062C74656D0077726F6E6720706173730074FC
S113063C727920616761696E00736F7272792063DD
S107064C616E740063
S9030000FC
