:100000000C942A000C9434000C9434000C943400AA
:100010000C9434000C9434000C9434000C94340090
:100020000C9434000C9434000C9434000C94340080
:100030000C9468000C9434000C9434000C9434003C
:100040000C9434000C9434000C9434000C94340060
:100050000C94340011241FBECFE5D8E0DEBFCDBF25
:100060000E9461000C9493000C94000086B7846099
:1000700086BF11B887E480B9089584EA86BF06B6C2
:1000800007FEFDCF089584E986BF089583B984E80B
:1000900086BF06B607FEFDCF0895BC98BD98BF98F1
:1000A000BE9A8DB1816C8DB96C9808950E943D0007
:1000B0008CE30E94460083E70E9446000E944300B2
:1000C0000895A29A78940E944D000E943600FFCFB6
:1000D0001F920F920FB60F9211242F933F934F93BD
:1000E0005F936F937F938F939F93AF93BF93EF93A0
:1000F000FF938FB18F3631F495B384E0892785BBA8
:100100000E945600FF91EF91BF91AF919F918F9107
:100110007F916F915F914F913F912F910F900FBE03
:0A0120000F901F901895F894FFCF80
:00000001FF
