:100000000C942A000C9447000C9447000C94470071
:100010000C9447000C9447000C9447000C94470044
:100020000C9447000C9418010C9447000C946A013E
:100030000C9447000C9447000C9447000C94470024
:100040000C9447000C9447000C9447000C94470014
:100050000C94470011241FBECFE5D8E0DEBFCDBF12
:1000600010E0A0E6B0E0EAE7F3E002C005900D92F0
:10007000A836B107D9F720E0A8E6B0E001C01D928C
:10008000A637B207E1F70E9405010C94BB010C945E
:100090000000A89A85E08A95F1F70000A89885E00D
:1000A0008A95F1F700000895A99812BA82BB0E94C0
:1000B00049000895A99A12BA82BB0E944900089586
:1000C000A19AA09A8FEF81BBA998A89812BA8FE342
:1000D0009CE90197F1F700C0000012BA88E30E9482
:1000E00054000E9449008FEA96E30197F1F700C09F
:1000F000000012BA88E30E9454000E9449009FEF5A
:100100002DEE82E0915020408040E1F700C00000D9
:1001100012BA88E30E9454000E94490081E00E94C4
:1001200054008FE19EE40197F1F700C0000082E0E7
:100130000E9454008FE19EE40197F1F700C0000097
:1001400086E00E9454008FE19EE40197F1F700C021
:1001500000008DE00E9454008FE19EE40197F1F7CA
:1001600000C0000080E10E9454008FE19EE40197EE
:10017000F1F700C0000086E50E9454008FE19EE484
:100180000197F1F700C0000080E80E9454008FE161
:100190009EE40197F1F700C000000895CF93DF932C
:1001A000EA0190E4899F600D1124862F815C0E94F2
:1001B00054008FEC97E00197F1F700C000008881B0
:1001C000882361F021960E945A008FE19EE40197F6
:1001D000F1F700C0000089918111F5CFDF91CF9137
:1001E00008951FBC84E08EBD8EEE95E89DBD8CBD4C
:1001F00089B7846089BF78940895C09A86E083BFE8
:1002000089B7816089BF789408950E94F1000E94A7
:10021000FD000E94600040E650E062E081E00E9444
:10022000CE0045E650E068E082E00E94CE00FFCFBD
:100230001F920F920FB60F9211242F933F934F935B
:100240005F936F937F938F939F93AF93BF93EF933E
:10025000FF9382B7809375002091750080917400A0
:1002600090E0982F8827820F911D909373008093C0
:10027000720080917200909173004AE050E068E64D
:1002800070E00E947B0148E650E062E082E00E945C
:10029000CE001092730010927200109274001092AF
:1002A00075008EEE95E89DBD8CBD12BE88B781604D
:1002B00088BFFF91EF91BF91AF919F918F917F91F7
:1002C0006F915F914F913F912F910F900FBE0F90C3
:1002D0001F9018951F920F920FB60F9211248F93B3
:1002E000809174008F5F809374008F910F900FBE88
:1002F0000F901F9018954532510520F4423010F0B0
:100300000C948601FB011082CB010895BB274A3073
:1003100031F4992322F4BDE2909581959F4F0C947E
:100320009201BB27FB015527AA27880F991FAA1FF7
:10033000A41710F0A41B83955051B9F7A05DAA3300
:1003400008F0A95DA193009779F7B111B1931192CB
:10035000CB010C94AB01DC01FC01672F7191772379
:10036000E1F7329704C07C916D9370836291AE1770
:0A037000BF07C8F30895F894FFCF0B
:08037A0046203D2000485A0016
:00000001FF
