:100000000C942A000C9434000C9434000C943400AA
:100010000C9434000C9434000C9434000C94340090
:100020000C9434000C9434000C9434000C94340080
:100030000C9434000C9434000C9434000C94340070
:100040000C9434000C9434000C9434000C945F0035
:100050000C94340011241FBECFE5D8E0DEBFCDBF25
:100060000E9445000C947D000C94000086B78460CB
:1000700086BF11B88DE382B985EC86BF87E480B96D
:1000800008955D9BFECF8CB9089588E18AB986E812
:1000900080BD83E389B90E943600A298A39A789420
:1000A0009A99FECF2FEB84ED91E021508040904053
:1000B000E1F700C000008FE60E944100F1CF1F92DF
:1000C0000F920FB60F9211248F939F9383B18337B2
:1000D00051F495B388E0892785BB87EA91E60197BB
:1000E000F1F700C0000086B7806886BF9F918F91AE
:0E00F0000F900FBE0F901F901895F894FFCF41
:00000001FF
