:100000000C942A000C943C000C943C000C943C0092
:100010000C943C000C943C000C943C000C943C0070
:100020000C943C000C943C000C943C000C943C0060
:100030000C943C000C9465000C943C000C943C0027
:100040000C943C000C943C000C943C000C943C0040
:100050000C943C0011241FBECFE5D8E0DEBFCDBF1D
:1000600020E0A0E6B0E001C01D92A136B207E1F7A2
:100070000E944A000C948C000C94000080EB87BB1B
:10008000BE9881E58DB90895C4988FB9779BFECF4E
:10009000C49A0895789488E98AB986E880BD83E394
:1000A00089B90E943E008F9A2FE38DE093E02150A2
:1000B00080409040E1F700C00000809160008F36E2
:1000C00099F782B3805882BBEFCF1F920F920FB681
:1000D0000F9211242F933F934F935F936F937F93CE
:1000E0008F939F93AF93BF93EF93FF938CB18093C4
:1000F00060000E944400FF91EF91BF91AF919F91EA
:100100008F917F916F915F914F913F912F910F90C0
:0C0110000FBE0F901F901895F894FFCFC1
:00000001FF
